{
  "transactions": [
    {
      "hash": "0xf5a06ba38a4a05b3f5ed785202e872a6e1be827cc010c6ec7da7e3ac44a34312",
      "transactionType": "CALL",
      "contractName": "LinkToken",
      "contractAddress": "0x326C977E6efc84E512bB9C30f76E30c160eD06FB",
      "function": "approve(address,uint256):(bool)",
      "arguments": [
        "0x85b568c42FE6360Ee4230Eb220aA79Cfad82ca3d",
        "100000000000000000"
      ],
      "transaction": {
        "type": "0x02",
        "from": "0x15d2d027c8e2ccd5295e35659b76e61def483ee7",
        "to": "0x326c977e6efc84e512bb9c30f76e30c160ed06fb",
        "gas": "0x10816",
        "value": "0x0",
        "data": "0x095ea7b300000000000000000000000085b568c42fe6360ee4230eb220aa79cfad82ca3d000000000000000000000000000000000000000000000000016345785d8a0000",
        "nonce": "0x51",
        "accessList": []
      },
      "additionalContracts": []
    },
    {
      "hash": "0xd781ac7ff9d7a697c258c766fb22c482fd29106240839b6af6af650e2c9ec95f",
      "transactionType": "CALL",
      "contractName": null,
      "contractAddress": "0x85b568c42FE6360Ee4230Eb220aA79Cfad82ca3d",
      "function": null,
      "arguments": null,
      "transaction": {
        "type": "0x02",
        "from": "0x15d2d027c8e2ccd5295e35659b76e61def483ee7",
        "to": "0x85b568c42fe6360ee4230eb220aa79cfad82ca3d",
        "gas": "0x1c9e7",
        "value": "0x0",
        "data": "0x34d9bdc3000000000000000000000000000000000000000000000000016345785d8a00000000000000000000000000000865b950a19da6abfd19521c79846f04aea20f2d",
        "nonce": "0x52",
        "accessList": []
      },
      "additionalContracts": []
    },
    {
      "hash": "0x5dc77d176e8512fcfd118b14a18d89aee3dd935c793d50c10ebc1a167dfe5150",
      "transactionType": "CALL",
      "contractName": null,
      "contractAddress": "0x0865B950a19da6aBFd19521C79846F04aEA20F2d",
      "function": null,
      "arguments": null,
      "transaction": {
        "type": "0x02",
        "from": "0x15d2d027c8e2ccd5295e35659b76e61def483ee7",
        "to": "0x0865b950a19da6abfd19521c79846f04aea20f2d",
        "gas": "0x41879",
        "value": "0x0",
        "data": "0x03321a8a306f6d48394b6c543541686f566532386a6c4d300000000000000000000000000000000000000000000000000000000000000000000000000000000000000000",
        "nonce": "0x53",
        "accessList": []
      },
      "additionalContracts": []
    }
  ],
  "receipts": [
    {
      "transactionHash": "0xf5a06ba38a4a05b3f5ed785202e872a6e1be827cc010c6ec7da7e3ac44a34312",
      "transactionIndex": "0x2",
      "blockHash": "0x988aa2de409c0973401d61bc26f4075efb601f5b5c392d608034e2b9df484c42",
      "blockNumber": "0x1acf9ef",
      "from": "0x15d2d027c8E2CcD5295E35659B76E61dEF483eE7",
      "to": "0x326C977E6efc84E512bB9C30f76E30c160eD06FB",
      "cumulativeGasUsed": "0x2199f",
      "gasUsed": "0xb493",
      "contractAddress": null,
      "logs": [
        {
          "address": "0x326C977E6efc84E512bB9C30f76E30c160eD06FB",
          "topics": [
            "0x8c5be1e5ebec7d5bd14f71427d1e84f3dd0314c0f7b2291e5b200ac8c7c3b925",
            "0x00000000000000000000000015d2d027c8e2ccd5295e35659b76e61def483ee7",
            "0x00000000000000000000000085b568c42fe6360ee4230eb220aa79cfad82ca3d"
          ],
          "data": "0x000000000000000000000000000000000000000000000000016345785d8a0000",
          "blockHash": "0x988aa2de409c0973401d61bc26f4075efb601f5b5c392d608034e2b9df484c42",
          "blockNumber": "0x1acf9ef",
          "transactionHash": "0xf5a06ba38a4a05b3f5ed785202e872a6e1be827cc010c6ec7da7e3ac44a34312",
          "transactionIndex": "0x2",
          "logIndex": "0x4",
          "removed": false
        },
        {
          "address": "0x0000000000000000000000000000000000001010",
          "topics": [
            "0x4dfe1bbbcf077ddc3e01291eea2d5c70c2b422b415d95645b9adcfd678cb1d63",
            "0x0000000000000000000000000000000000000000000000000000000000001010",
            "0x00000000000000000000000015d2d027c8e2ccd5295e35659b76e61def483ee7",
            "0x000000000000000000000000c275dc8be39f50d12f66b6a63629c39da5bae5bd"
          ],
          "data": "0x00000000000000000000000000000000000000000000000000007e212fbdfa000000000000000000000000000000000000000000000000000372819f641c36d8000000000000000000000000000000000000000000000914979b8227c1f1d0c90000000000000000000000000000000000000000000000000372037e345e3cd8000000000000000000000000000000000000000000000914979c0048f1afcac9",
          "blockHash": "0x988aa2de409c0973401d61bc26f4075efb601f5b5c392d608034e2b9df484c42",
          "blockNumber": "0x1acf9ef",
          "transactionHash": "0xf5a06ba38a4a05b3f5ed785202e872a6e1be827cc010c6ec7da7e3ac44a34312",
          "transactionIndex": "0x2",
          "logIndex": "0x5",
          "removed": false
        }
      ],
      "status": "0x1",
      "logsBloom": "0x00000000000000040080000000000000000000000000000000000000000000000000000000000000000000000000000000008000002040000000000000200000000000000000000000000000000000800000000000000000040100000000000000000000000000000000000000000000000000000000000080000000000000000000000000000000000000000000000000000000000010000000000000400000220000000800000000000000000000000000000000000000000040000000004000000000000000000001000000000000000000000000000000100000000000000810000000000000001000000000000000000000000000000000000000100000",
      "type": "0x2",
      "effectiveGasPrice": "0xb2d05e0c"
    },
    {
      "transactionHash": "0xd781ac7ff9d7a697c258c766fb22c482fd29106240839b6af6af650e2c9ec95f",
      "transactionIndex": "0x3",
      "blockHash": "0x988aa2de409c0973401d61bc26f4075efb601f5b5c392d608034e2b9df484c42",
      "blockNumber": "0x1acf9ef",
      "from": "0x15d2d027c8E2CcD5295E35659B76E61dEF483eE7",
      "to": "0x85b568c42FE6360Ee4230Eb220aA79Cfad82ca3d",
      "cumulativeGasUsed": "0x352b8",
      "gasUsed": "0x13919",
      "contractAddress": null,
      "logs": [
        {
          "address": "0x326C977E6efc84E512bB9C30f76E30c160eD06FB",
          "topics": [
            "0xddf252ad1be2c89b69c2b068fc378daa952ba7f163c4a11628f55a4df523b3ef",
            "0x00000000000000000000000015d2d027c8e2ccd5295e35659b76e61def483ee7",
            "0x00000000000000000000000085b568c42fe6360ee4230eb220aa79cfad82ca3d"
          ],
          "data": "0x000000000000000000000000000000000000000000000000016345785d8a0000",
          "blockHash": "0x988aa2de409c0973401d61bc26f4075efb601f5b5c392d608034e2b9df484c42",
          "blockNumber": "0x1acf9ef",
          "transactionHash": "0xd781ac7ff9d7a697c258c766fb22c482fd29106240839b6af6af650e2c9ec95f",
          "transactionIndex": "0x3",
          "logIndex": "0x6",
          "removed": false
        },
        {
          "address": "0x0000000000000000000000000000000000001010",
          "topics": [
            "0x4dfe1bbbcf077ddc3e01291eea2d5c70c2b422b415d95645b9adcfd678cb1d63",
            "0x0000000000000000000000000000000000000000000000000000000000001010",
            "0x00000000000000000000000015d2d027c8e2ccd5295e35659b76e61def483ee7",
            "0x000000000000000000000000c275dc8be39f50d12f66b6a63629c39da5bae5bd"
          ],
          "data": "0x0000000000000000000000000000000000000000000000000000dab239472e000000000000000000000000000000000000000000000000000372037e3455c5f4000000000000000000000000000000000000000000000914979c0048f1afcac9000000000000000000000000000000000000000000000000037128cbfb0e97f4000000000000000000000000000000000000000000000914979cdafb2af6f8c9",
          "blockHash": "0x988aa2de409c0973401d61bc26f4075efb601f5b5c392d608034e2b9df484c42",
          "blockNumber": "0x1acf9ef",
          "transactionHash": "0xd781ac7ff9d7a697c258c766fb22c482fd29106240839b6af6af650e2c9ec95f",
          "transactionIndex": "0x3",
          "logIndex": "0x7",
          "removed": false
        }
      ],
      "status": "0x1",
      "logsBloom": "0x00000000000000040080000000000000000000000000000000000000000000000000000000000000000000000000000000008000002040000000000000000000000000000000000000000008000000800000000000000000040100000000000000000000000000000000000000000000000000000000000080000010000000000000000000000000000000000000000000000000000010000000000000400000200000000800000000000000000000000000000000000000000040000000004000000002000000000001000000000000000000000000000000100000000000000800000000000000001000000000000000000000000000000000000000100000",
      "type": "0x2",
      "effectiveGasPrice": "0xb2d05e0c"
    },
    {
      "transactionHash": "0x5dc77d176e8512fcfd118b14a18d89aee3dd935c793d50c10ebc1a167dfe5150",
      "transactionIndex": "0x4",
      "blockHash": "0x988aa2de409c0973401d61bc26f4075efb601f5b5c392d608034e2b9df484c42",
      "blockNumber": "0x1acf9ef",
      "from": "0x15d2d027c8E2CcD5295E35659B76E61dEF483eE7",
      "to": "0x0865B950a19da6aBFd19521C79846F04aEA20F2d",
      "cumulativeGasUsed": "0x649cc",
      "gasUsed": "0x2f714",
      "contractAddress": null,
      "logs": [
        {
          "address": "0x85b568c42FE6360Ee4230Eb220aA79Cfad82ca3d",
          "topics": [
            "0xb5e6e01e79f91267dc17b4e6314d5d4d03593d2ceee0fbb452b750bd70ea5af9",
            "0x4493ce5fdcd2b05e3479380bfb57b0b3cdba4df3e32d03f9145e371bf324c302"
          ],
          "data": "0x",
          "blockHash": "0x988aa2de409c0973401d61bc26f4075efb601f5b5c392d608034e2b9df484c42",
          "blockNumber": "0x1acf9ef",
          "transactionHash": "0x5dc77d176e8512fcfd118b14a18d89aee3dd935c793d50c10ebc1a167dfe5150",
          "transactionIndex": "0x4",
          "logIndex": "0x8",
          "removed": false
        },
        {
          "address": "0x326C977E6efc84E512bB9C30f76E30c160eD06FB",
          "topics": [
            "0xddf252ad1be2c89b69c2b068fc378daa952ba7f163c4a11628f55a4df523b3ef",
            "0x00000000000000000000000085b568c42fe6360ee4230eb220aa79cfad82ca3d",
            "0x000000000000000000000000234c799054d5298777c37f1b8526d895f8d28874"
          ],
          "data": "0x000000000000000000000000000000000000000000000000016345785d8a0000",
          "blockHash": "0x988aa2de409c0973401d61bc26f4075efb601f5b5c392d608034e2b9df484c42",
          "blockNumber": "0x1acf9ef",
          "transactionHash": "0x5dc77d176e8512fcfd118b14a18d89aee3dd935c793d50c10ebc1a167dfe5150",
          "transactionIndex": "0x4",
          "logIndex": "0x9",
          "removed": false
        },
        {
          "address": "0x326C977E6efc84E512bB9C30f76E30c160eD06FB",
          "topics": [
            "0xe19260aff97b920c7df27010903aeb9c8d2be5d310a2c67824cf3f15396e4c16",
            "0x00000000000000000000000085b568c42fe6360ee4230eb220aa79cfad82ca3d",
            "0x000000000000000000000000234c799054d5298777c37f1b8526d895f8d28874"
          ],
          "data": "0x000000000000000000000000000000000000000000000000016345785d8a0000000000000000000000000000000000000000000000000000000000000000004000000000000000000000000000000000000000000000000000000000000001843c6d41b9000000000000000000000000000000000000000000000000000000000000000000000000000000000000000000000000000000000000000000000000000000006166633661613064336136633438633062623531616163613563323831663138fce05862000000000000000000000000000000000000000000000000000000000000000000000000000000000000000000000000000000000000000000000004000000000000000000000000000000000000000000000000000000000000000200000000000000000000000000000000000000000000000000000000000000e000000000000000000000000000000000000000000000000000000000000000646370756278283038363562393530613139646136616266643139353231633739383436663034616561323066326466706f7374496474306f6d48394b6c543541686f566532386a6c4d3064616449647400000000000000000000000000000000000000000000000000000000000000000000000000000000000000000000000000000000000000000000000000000000000000000000000000000000",
          "blockHash": "0x988aa2de409c0973401d61bc26f4075efb601f5b5c392d608034e2b9df484c42",
          "blockNumber": "0x1acf9ef",
          "transactionHash": "0x5dc77d176e8512fcfd118b14a18d89aee3dd935c793d50c10ebc1a167dfe5150",
          "transactionIndex": "0x4",
          "logIndex": "0xa",
          "removed": false
        },
        {
          "address": "0x234C799054D5298777C37F1B8526d895f8D28874",
          "topics": [
            "0xd8d7ecc4800d25fa53ce0372f13a416d98907a7ef3d8d3bdd79cf4fe75529c65",
            "0x6166633661613064336136633438633062623531616163613563323831663138"
          ],
          "data": "0x00000000000000000000000085b568c42fe6360ee4230eb220aa79cfad82ca3d4493ce5fdcd2b05e3479380bfb57b0b3cdba4df3e32d03f9145e371bf324c302000000000000000000000000000000000000000000000000016345785d8a000000000000000000000000000085b568c42fe6360ee4230eb220aa79cfad82ca3dfce0586200000000000000000000000000000000000000000000000000000000000000000000000000000000000000000000000000000000000000006322ec6b0000000000000000000000000000000000000000000000000000000000000002000000000000000000000000000000000000000000000000000000000000010000000000000000000000000000000000000000000000000000000000000000646370756278283038363562393530613139646136616266643139353231633739383436663034616561323066326466706f7374496474306f6d48394b6c543541686f566532386a6c4d30646164496474000000000000000000000000000000000000000000000000000000000000000000000000000000000000000000000000",
          "blockHash": "0x988aa2de409c0973401d61bc26f4075efb601f5b5c392d608034e2b9df484c42",
          "blockNumber": "0x1acf9ef",
          "transactionHash": "0x5dc77d176e8512fcfd118b14a18d89aee3dd935c793d50c10ebc1a167dfe5150",
          "transactionIndex": "0x4",
          "logIndex": "0xb",
          "removed": false
        },
        {
          "address": "0x0000000000000000000000000000000000001010",
          "topics": [
            "0x4dfe1bbbcf077ddc3e01291eea2d5c70c2b422b415d95645b9adcfd678cb1d63",
            "0x0000000000000000000000000000000000000000000000000000000000001010",
            "0x00000000000000000000000015d2d027c8e2ccd5295e35659b76e61def483ee7",
            "0x000000000000000000000000c275dc8be39f50d12f66b6a63629c39da5bae5bd"
          ],
          "data": "0x00000000000000000000000000000000000000000000000000021235bef95800000000000000000000000000000000000000000000000000037128cbfaffeac8000000000000000000000000000000000000000000000914979cdafb2af6f8c9000000000000000000000000000000000000000000000000036f16963c0692c8000000000000000000000000000000000000000000000914979eed30e9f050c9",
          "blockHash": "0x988aa2de409c0973401d61bc26f4075efb601f5b5c392d608034e2b9df484c42",
          "blockNumber": "0x1acf9ef",
          "transactionHash": "0x5dc77d176e8512fcfd118b14a18d89aee3dd935c793d50c10ebc1a167dfe5150",
          "transactionIndex": "0x4",
          "logIndex": "0xc",
          "removed": false
        }
      ],
      "status": "0x1",
      "logsBloom": "0x01000000000000040080000000000000000000000001001000000000020000000000000000000000000000000000000400008000002040000000000000000000000000010000000000000008000000840000000800000000040320000000000000000000000002000000000000000000000000000000080080008010000000000000000080000000000000000001000000000420000010000000000000400000200000000800000000000000000000000200000000010000000040000000006000000002000400000001000000000000000000000000000000100000400000000800000000000000001000004000000000000000000000000002000000100000",
      "type": "0x2",
      "effectiveGasPrice": "0xb2d05e0c"
    }
  ],
  "libraries": [],
  "pending": [],
  "path": "/Users/joaoabrantis/github/writingmonks/contracts/broadcast/TestRelayerMumbai.s.sol/80001/run-latest.json",
  "returns": {},
  "timestamp": 1663232835,
  "commit": "b896821"
}