{
  "transactions": [
    {
      "hash": "0xe77761644b47157bc86ca2c32b9b8bdcfd13d1ecb24393ca97cd196cfb0ac8af",
      "transactionType": "CALL",
      "contractName": "LinkToken",
      "contractAddress": "0x326C977E6efc84E512bB9C30f76E30c160eD06FB",
      "function": "approve(address,uint256):(bool)",
      "arguments": [
        "0x85b568c42FE6360Ee4230Eb220aA79Cfad82ca3d",
        "100000000000000000"
      ],
      "transaction": {
        "type": "0x02",
        "from": "0x15d2d027c8e2ccd5295e35659b76e61def483ee7",
        "to": "0x326c977e6efc84e512bb9c30f76e30c160ed06fb",
        "gas": "0x10816",
        "value": "0x0",
        "data": "0x095ea7b300000000000000000000000085b568c42fe6360ee4230eb220aa79cfad82ca3d000000000000000000000000000000000000000000000000016345785d8a0000",
        "nonce": "0x48",
        "accessList": []
      },
      "additionalContracts": []
    },
    {
      "hash": "0x3c6d5664028ddfeeb4e7fccc4686012fbc075c89cd9c883b96fb5f80cb4b5ee2",
      "transactionType": "CALL",
      "contractName": null,
      "contractAddress": "0x85b568c42FE6360Ee4230Eb220aA79Cfad82ca3d",
      "function": null,
      "arguments": null,
      "transaction": {
        "type": "0x02",
        "from": "0x15d2d027c8e2ccd5295e35659b76e61def483ee7",
        "to": "0x85b568c42fe6360ee4230eb220aa79cfad82ca3d",
        "gas": "0x1c9e7",
        "value": "0x0",
        "data": "0x34d9bdc3000000000000000000000000000000000000000000000000016345785d8a00000000000000000000000000000865b950a19da6abfd19521c79846f04aea20f2d",
        "nonce": "0x49",
        "accessList": []
      },
      "additionalContracts": []
    },
    {
      "hash": "0x591154be6755e6e9cd4483673faba503f41c7293eb755c7999028d68d8d4187a",
      "transactionType": "CALL",
      "contractName": null,
      "contractAddress": "0x0865B950a19da6aBFd19521C79846F04aEA20F2d",
      "function": null,
      "arguments": null,
      "transaction": {
        "type": "0x02",
        "from": "0x15d2d027c8e2ccd5295e35659b76e61def483ee7",
        "to": "0x0865b950a19da6abfd19521c79846f04aea20f2d",
        "gas": "0x3eadd",
        "value": "0x0",
        "data": "0x088d8ace00000000000000000000000000000000000000000000000015cae08e66da5000",
        "nonce": "0x4a",
        "accessList": []
      },
      "additionalContracts": []
    }
  ],
  "receipts": [
    {
      "transactionHash": "0xe77761644b47157bc86ca2c32b9b8bdcfd13d1ecb24393ca97cd196cfb0ac8af",
      "transactionIndex": "0x0",
      "blockHash": "0x7e741b5b7af89625e4d1a408b75fb6221a6bb04cb99fef29875a7eeaf5ef3561",
      "blockNumber": "0x1acf86b",
      "from": "0x15d2d027c8E2CcD5295E35659B76E61dEF483eE7",
      "to": "0x326C977E6efc84E512bB9C30f76E30c160eD06FB",
      "cumulativeGasUsed": "0xb493",
      "gasUsed": "0xb493",
      "contractAddress": null,
      "logs": [
        {
          "address": "0x326C977E6efc84E512bB9C30f76E30c160eD06FB",
          "topics": [
            "0x8c5be1e5ebec7d5bd14f71427d1e84f3dd0314c0f7b2291e5b200ac8c7c3b925",
            "0x00000000000000000000000015d2d027c8e2ccd5295e35659b76e61def483ee7",
            "0x00000000000000000000000085b568c42fe6360ee4230eb220aa79cfad82ca3d"
          ],
          "data": "0x000000000000000000000000000000000000000000000000016345785d8a0000",
          "blockHash": "0x7e741b5b7af89625e4d1a408b75fb6221a6bb04cb99fef29875a7eeaf5ef3561",
          "blockNumber": "0x1acf86b",
          "transactionHash": "0xe77761644b47157bc86ca2c32b9b8bdcfd13d1ecb24393ca97cd196cfb0ac8af",
          "transactionIndex": "0x0",
          "logIndex": "0x0",
          "removed": false
        },
        {
          "address": "0x0000000000000000000000000000000000001010",
          "topics": [
            "0x4dfe1bbbcf077ddc3e01291eea2d5c70c2b422b415d95645b9adcfd678cb1d63",
            "0x0000000000000000000000000000000000000000000000000000000000001010",
            "0x00000000000000000000000015d2d027c8e2ccd5295e35659b76e61def483ee7",
            "0x000000000000000000000000c275dc8be39f50d12f66b6a63629c39da5bae5bd"
          ],
          "data": "0x00000000000000000000000000000000000000000000000000007e212fbdfa00000000000000000000000000000000000000000000000000037c65f1f2295e3f000000000000000000000000000000000000000000000914592c1e94a2c5ac6e000000000000000000000000000000000000000000000000037be7d0c26b643f000000000000000000000000000000000000000000000914592c9cb5d283a66e",
          "blockHash": "0x7e741b5b7af89625e4d1a408b75fb6221a6bb04cb99fef29875a7eeaf5ef3561",
          "blockNumber": "0x1acf86b",
          "transactionHash": "0xe77761644b47157bc86ca2c32b9b8bdcfd13d1ecb24393ca97cd196cfb0ac8af",
          "transactionIndex": "0x0",
          "logIndex": "0x1",
          "removed": false
        }
      ],
      "status": "0x1",
      "logsBloom": "0x00000000000000040080000000000000000000000000000000000000000000000000000000000000000000000000000000008000002040000000000000200000000000000000000000000000000000800000000000000000040100000000000000000000000000000000000000000000000000000000000080000000000000000000000000000000000000000000000000000000000010000000000000400000220000000800000000000000000000000000000000000000000040000000004000000000000000000001000000000000000000000000000000100000000000000810000000000000001000000000000000000000000000000000000000100000",
      "type": "0x2",
      "effectiveGasPrice": "0xb2d05e0c"
    },
    {
      "transactionHash": "0x3c6d5664028ddfeeb4e7fccc4686012fbc075c89cd9c883b96fb5f80cb4b5ee2",
      "transactionIndex": "0x1",
      "blockHash": "0x7e741b5b7af89625e4d1a408b75fb6221a6bb04cb99fef29875a7eeaf5ef3561",
      "blockNumber": "0x1acf86b",
      "from": "0x15d2d027c8E2CcD5295E35659B76E61dEF483eE7",
      "to": "0x85b568c42FE6360Ee4230Eb220aA79Cfad82ca3d",
      "cumulativeGasUsed": "0x1edac",
      "gasUsed": "0x13919",
      "contractAddress": null,
      "logs": [
        {
          "address": "0x326C977E6efc84E512bB9C30f76E30c160eD06FB",
          "topics": [
            "0xddf252ad1be2c89b69c2b068fc378daa952ba7f163c4a11628f55a4df523b3ef",
            "0x00000000000000000000000015d2d027c8e2ccd5295e35659b76e61def483ee7",
            "0x00000000000000000000000085b568c42fe6360ee4230eb220aa79cfad82ca3d"
          ],
          "data": "0x000000000000000000000000000000000000000000000000016345785d8a0000",
          "blockHash": "0x7e741b5b7af89625e4d1a408b75fb6221a6bb04cb99fef29875a7eeaf5ef3561",
          "blockNumber": "0x1acf86b",
          "transactionHash": "0x3c6d5664028ddfeeb4e7fccc4686012fbc075c89cd9c883b96fb5f80cb4b5ee2",
          "transactionIndex": "0x1",
          "logIndex": "0x2",
          "removed": false
        },
        {
          "address": "0x0000000000000000000000000000000000001010",
          "topics": [
            "0x4dfe1bbbcf077ddc3e01291eea2d5c70c2b422b415d95645b9adcfd678cb1d63",
            "0x0000000000000000000000000000000000000000000000000000000000001010",
            "0x00000000000000000000000015d2d027c8e2ccd5295e35659b76e61def483ee7",
            "0x000000000000000000000000c275dc8be39f50d12f66b6a63629c39da5bae5bd"
          ],
          "data": "0x0000000000000000000000000000000000000000000000000000dab239472e00000000000000000000000000000000000000000000000000037be7d0c262ed5b000000000000000000000000000000000000000000000914592c9cb5d283a66e000000000000000000000000000000000000000000000000037b0d1e891bbf5b000000000000000000000000000000000000000000000914592d77680bcad46e",
          "blockHash": "0x7e741b5b7af89625e4d1a408b75fb6221a6bb04cb99fef29875a7eeaf5ef3561",
          "blockNumber": "0x1acf86b",
          "transactionHash": "0x3c6d5664028ddfeeb4e7fccc4686012fbc075c89cd9c883b96fb5f80cb4b5ee2",
          "transactionIndex": "0x1",
          "logIndex": "0x3",
          "removed": false
        }
      ],
      "status": "0x1",
      "logsBloom": "0x00000000000000040080000000000000000000000000000000000000000000000000000000000000000000000000000000008000002040000000000000000000000000000000000000000008000000800000000000000000040100000000000000000000000000000000000000000000000000000000000080000010000000000000000000000000000000000000000000000000000010000000000000400000200000000800000000000000000000000000000000000000000040000000004000000002000000000001000000000000000000000000000000100000000000000800000000000000001000000000000000000000000000000000000000100000",
      "type": "0x2",
      "effectiveGasPrice": "0xb2d05e0c"
    },
    {
      "transactionHash": "0x591154be6755e6e9cd4483673faba503f41c7293eb755c7999028d68d8d4187a",
      "transactionIndex": "0x2",
      "blockHash": "0x7e741b5b7af89625e4d1a408b75fb6221a6bb04cb99fef29875a7eeaf5ef3561",
      "blockNumber": "0x1acf86b",
      "from": "0x15d2d027c8E2CcD5295E35659B76E61dEF483eE7",
      "to": "0x0865B950a19da6aBFd19521C79846F04aEA20F2d",
      "cumulativeGasUsed": "0x4c3bb",
      "gasUsed": "0x2d60f",
      "contractAddress": null,
      "logs": [
        {
          "address": "0x85b568c42FE6360Ee4230Eb220aA79Cfad82ca3d",
          "topics": [
            "0xb5e6e01e79f91267dc17b4e6314d5d4d03593d2ceee0fbb452b750bd70ea5af9",
            "0x3516bf945a87c63eb18f1fca96b670cbd78540d0e5e265e80fbcdc7fa22d0b8d"
          ],
          "data": "0x",
          "blockHash": "0x7e741b5b7af89625e4d1a408b75fb6221a6bb04cb99fef29875a7eeaf5ef3561",
          "blockNumber": "0x1acf86b",
          "transactionHash": "0x591154be6755e6e9cd4483673faba503f41c7293eb755c7999028d68d8d4187a",
          "transactionIndex": "0x2",
          "logIndex": "0x4",
          "removed": false
        },
        {
          "address": "0x326C977E6efc84E512bB9C30f76E30c160eD06FB",
          "topics": [
            "0xddf252ad1be2c89b69c2b068fc378daa952ba7f163c4a11628f55a4df523b3ef",
            "0x00000000000000000000000085b568c42fe6360ee4230eb220aa79cfad82ca3d",
            "0x000000000000000000000000234c799054d5298777c37f1b8526d895f8d28874"
          ],
          "data": "0x000000000000000000000000000000000000000000000000016345785d8a0000",
          "blockHash": "0x7e741b5b7af89625e4d1a408b75fb6221a6bb04cb99fef29875a7eeaf5ef3561",
          "blockNumber": "0x1acf86b",
          "transactionHash": "0x591154be6755e6e9cd4483673faba503f41c7293eb755c7999028d68d8d4187a",
          "transactionIndex": "0x2",
          "logIndex": "0x5",
          "removed": false
        },
        {
          "address": "0x326C977E6efc84E512bB9C30f76E30c160eD06FB",
          "topics": [
            "0xe19260aff97b920c7df27010903aeb9c8d2be5d310a2c67824cf3f15396e4c16",
            "0x00000000000000000000000085b568c42fe6360ee4230eb220aa79cfad82ca3d",
            "0x000000000000000000000000234c799054d5298777c37f1b8526d895f8d28874"
          ],
          "data": "0x000000000000000000000000000000000000000000000000016345785d8a0000000000000000000000000000000000000000000000000000000000000000004000000000000000000000000000000000000000000000000000000000000001643c6d41b90000000000000000000000000000000000000000000000000000000000000000000000000000000000000000000000000000000000000000000000000000000033333763663038346332363234363533396631623465613734386633356438387707f5b5000000000000000000000000000000000000000000000000000000000000000000000000000000000000000000000000000000000000000000000001000000000000000000000000000000000000000000000000000000000000000200000000000000000000000000000000000000000000000000000000000000e00000000000000000000000000000000000000000000000000000000000000058677477656574496473313537303331343332323330373630303338346c74776565745f6669656c64736e7075626c69635f6d657472696373647061746878197075626c69635f6d6574726963732c6c696b655f636f756e74000000000000000000000000000000000000000000000000000000000000000000000000",
          "blockHash": "0x7e741b5b7af89625e4d1a408b75fb6221a6bb04cb99fef29875a7eeaf5ef3561",
          "blockNumber": "0x1acf86b",
          "transactionHash": "0x591154be6755e6e9cd4483673faba503f41c7293eb755c7999028d68d8d4187a",
          "transactionIndex": "0x2",
          "logIndex": "0x6",
          "removed": false
        },
        {
          "address": "0x234C799054D5298777C37F1B8526d895f8D28874",
          "topics": [
            "0xd8d7ecc4800d25fa53ce0372f13a416d98907a7ef3d8d3bdd79cf4fe75529c65",
            "0x3333376366303834633236323436353339663162346561373438663335643838"
          ],
          "data": "0x00000000000000000000000085b568c42fe6360ee4230eb220aa79cfad82ca3d3516bf945a87c63eb18f1fca96b670cbd78540d0e5e265e80fbcdc7fa22d0b8d000000000000000000000000000000000000000000000000016345785d8a000000000000000000000000000085b568c42fe6360ee4230eb220aa79cfad82ca3d7707f5b500000000000000000000000000000000000000000000000000000000000000000000000000000000000000000000000000000000000000006322e4d1000000000000000000000000000000000000000000000000000000000000000200000000000000000000000000000000000000000000000000000000000001000000000000000000000000000000000000000000000000000000000000000058677477656574496473313537303331343332323330373630303338346c74776565745f6669656c64736e7075626c69635f6d657472696373647061746878197075626c69635f6d6574726963732c6c696b655f636f756e740000000000000000",
          "blockHash": "0x7e741b5b7af89625e4d1a408b75fb6221a6bb04cb99fef29875a7eeaf5ef3561",
          "blockNumber": "0x1acf86b",
          "transactionHash": "0x591154be6755e6e9cd4483673faba503f41c7293eb755c7999028d68d8d4187a",
          "transactionIndex": "0x2",
          "logIndex": "0x7",
          "removed": false
        },
        {
          "address": "0x0000000000000000000000000000000000001010",
          "topics": [
            "0x4dfe1bbbcf077ddc3e01291eea2d5c70c2b422b415d95645b9adcfd678cb1d63",
            "0x0000000000000000000000000000000000000000000000000000000000001010",
            "0x00000000000000000000000015d2d027c8e2ccd5295e35659b76e61def483ee7",
            "0x000000000000000000000000c275dc8be39f50d12f66b6a63629c39da5bae5bd"
          ],
          "data": "0x0000000000000000000000000000000000000000000000000001fb2564c98200000000000000000000000000000000000000000000000000037b0d1e890d122f000000000000000000000000000000000000000000000914592d77680bcad46e000000000000000000000000000000000000000000000000037911f92443902f000000000000000000000000000000000000000000000914592f728d7094566e",
          "blockHash": "0x7e741b5b7af89625e4d1a408b75fb6221a6bb04cb99fef29875a7eeaf5ef3561",
          "blockNumber": "0x1acf86b",
          "transactionHash": "0x591154be6755e6e9cd4483673faba503f41c7293eb755c7999028d68d8d4187a",
          "transactionIndex": "0x2",
          "logIndex": "0x8",
          "removed": false
        }
      ],
      "status": "0x1",
      "logsBloom": "0x01000000000000040080000000000000000000000001001000000000020000000000000000000000000000080000000000008000002040000000000000000000000000000000000000000028000000840000000800000000040320000000000000000000000002002000000000000000000000000000080080008010000000000000000080000000000000000001000000000420000010000000000000400000200000000800000000100000000000000000000000000000000040000000104000000002000400000001000000000000000000000000000000100000400000000800000000000000001000004000000000008000000000000000000000100000",
      "type": "0x2",
      "effectiveGasPrice": "0xb2d05e0c"
    }
  ],
  "libraries": [],
  "pending": [],
  "path": "/Users/joaoabrantis/github/writingmonks/contracts/broadcast/TestRelayerMumbai.s.sol/80001/run-latest.json",
  "returns": {},
  "timestamp": 1663230889,
  "commit": "b896821"
}