{
  "transactions": [
    {
      "hash": "0xf971f7073e88b8383d2fca39b3f773f248fe0da7049b4699d39b600667a9a498",
      "transactionType": "CALL",
      "contractName": "LinkToken",
      "contractAddress": "0x326C977E6efc84E512bB9C30f76E30c160eD06FB",
      "function": "approve(address,uint256):(bool)",
      "arguments": [
        "0x85b568c42FE6360Ee4230Eb220aA79Cfad82ca3d",
        "100000000000000000"
      ],
      "transaction": {
        "type": "0x02",
        "from": "0x15d2d027c8e2ccd5295e35659b76e61def483ee7",
        "to": "0x326c977e6efc84e512bb9c30f76e30c160ed06fb",
        "gas": "0x10816",
        "value": "0x0",
        "data": "0x095ea7b300000000000000000000000085b568c42fe6360ee4230eb220aa79cfad82ca3d000000000000000000000000000000000000000000000000016345785d8a0000",
        "nonce": "0x4b",
        "accessList": []
      },
      "additionalContracts": []
    },
    {
      "hash": "0x0469884cc7daff2928059a91c3044d00fd11d894ce02c32e37472211aa1cf87d",
      "transactionType": "CALL",
      "contractName": null,
      "contractAddress": "0x85b568c42FE6360Ee4230Eb220aA79Cfad82ca3d",
      "function": null,
      "arguments": null,
      "transaction": {
        "type": "0x02",
        "from": "0x15d2d027c8e2ccd5295e35659b76e61def483ee7",
        "to": "0x85b568c42fe6360ee4230eb220aa79cfad82ca3d",
        "gas": "0x1c9e7",
        "value": "0x0",
        "data": "0x34d9bdc3000000000000000000000000000000000000000000000000016345785d8a00000000000000000000000000000865b950a19da6abfd19521c79846f04aea20f2d",
        "nonce": "0x4c",
        "accessList": []
      },
      "additionalContracts": []
    },
    {
      "hash": "0x8fcf25416d38ee795909a452006f6a88088f668d39b1cec061636b1cbf90c6d4",
      "transactionType": "CALL",
      "contractName": null,
      "contractAddress": "0x0865B950a19da6aBFd19521C79846F04aEA20F2d",
      "function": null,
      "arguments": null,
      "transaction": {
        "type": "0x02",
        "from": "0x15d2d027c8e2ccd5295e35659b76e61def483ee7",
        "to": "0x0865b950a19da6abfd19521c79846f04aea20f2d",
        "gas": "0x3c42b",
        "value": "0x0",
        "data": "0x088d8ace00000000000000000000000000000000000000000000000015cae08e66da5000",
        "nonce": "0x4d",
        "accessList": []
      },
      "additionalContracts": []
    }
  ],
  "receipts": [],
  "libraries": [],
  "pending": [
    "0xf971f7073e88b8383d2fca39b3f773f248fe0da7049b4699d39b600667a9a498",
    "0x0469884cc7daff2928059a91c3044d00fd11d894ce02c32e37472211aa1cf87d",
    "0x8fcf25416d38ee795909a452006f6a88088f668d39b1cec061636b1cbf90c6d4"
  ],
  "path": "/Users/joaoabrantis/github/writingmonks/contracts/broadcast/TestRelayerMumbai.s.sol/80001/run-latest.json",
  "returns": {},
  "timestamp": 1663231161,
  "commit": "b896821"
}