{
  "transactions": [
    {
      "hash": "0xf5a06ba38a4a05b3f5ed785202e872a6e1be827cc010c6ec7da7e3ac44a34312",
      "transactionType": "CALL",
      "contractName": "LinkToken",
      "contractAddress": "0x326C977E6efc84E512bB9C30f76E30c160eD06FB",
      "function": "approve(address,uint256):(bool)",
      "arguments": [
        "0x85b568c42FE6360Ee4230Eb220aA79Cfad82ca3d",
        "100000000000000000"
      ],
      "transaction": {
        "type": "0x02",
        "from": "0x15d2d027c8e2ccd5295e35659b76e61def483ee7",
        "to": "0x326c977e6efc84e512bb9c30f76e30c160ed06fb",
        "gas": "0x10816",
        "value": "0x0",
        "data": "0x095ea7b300000000000000000000000085b568c42fe6360ee4230eb220aa79cfad82ca3d000000000000000000000000000000000000000000000000016345785d8a0000",
        "nonce": "0x51",
        "accessList": []
      },
      "additionalContracts": []
    },
    {
      "hash": "0xd781ac7ff9d7a697c258c766fb22c482fd29106240839b6af6af650e2c9ec95f",
      "transactionType": "CALL",
      "contractName": null,
      "contractAddress": "0x85b568c42FE6360Ee4230Eb220aA79Cfad82ca3d",
      "function": null,
      "arguments": null,
      "transaction": {
        "type": "0x02",
        "from": "0x15d2d027c8e2ccd5295e35659b76e61def483ee7",
        "to": "0x85b568c42fe6360ee4230eb220aa79cfad82ca3d",
        "gas": "0x1c9e7",
        "value": "0x0",
        "data": "0x34d9bdc3000000000000000000000000000000000000000000000000016345785d8a00000000000000000000000000000865b950a19da6abfd19521c79846f04aea20f2d",
        "nonce": "0x52",
        "accessList": []
      },
      "additionalContracts": []
    },
    {
      "hash": "0x5dc77d176e8512fcfd118b14a18d89aee3dd935c793d50c10ebc1a167dfe5150",
      "transactionType": "CALL",
      "contractName": null,
      "contractAddress": "0x0865B950a19da6aBFd19521C79846F04aEA20F2d",
      "function": null,
      "arguments": null,
      "transaction": {
        "type": "0x02",
        "from": "0x15d2d027c8e2ccd5295e35659b76e61def483ee7",
        "to": "0x0865b950a19da6abfd19521c79846f04aea20f2d",
        "gas": "0x41879",
        "value": "0x0",
        "data": "0x03321a8a306f6d48394b6c543541686f566532386a6c4d300000000000000000000000000000000000000000000000000000000000000000000000000000000000000000",
        "nonce": "0x53",
        "accessList": []
      },
      "additionalContracts": []
    }
  ],
  "receipts": [],
  "libraries": [],
  "pending": [
    "0xf5a06ba38a4a05b3f5ed785202e872a6e1be827cc010c6ec7da7e3ac44a34312",
    "0xd781ac7ff9d7a697c258c766fb22c482fd29106240839b6af6af650e2c9ec95f",
    "0x5dc77d176e8512fcfd118b14a18d89aee3dd935c793d50c10ebc1a167dfe5150"
  ],
  "path": "/Users/joaoabrantis/github/writingmonks/contracts/broadcast/TestRelayerMumbai.s.sol/80001/run-latest.json",
  "returns": {},
  "timestamp": 1663232822,
  "commit": "b896821"
}