{
  "transactions": [
    {
      "hash": "0x3caa4cb39546dda8d478706755a16b3538cd3d67dfd1f171f2e02758ead81d02",
      "transactionType": "CALL",
      "contractName": "LinkToken",
      "contractAddress": "0x326C977E6efc84E512bB9C30f76E30c160eD06FB",
      "function": "approve(address,uint256):(bool)",
      "arguments": [
        "0x85b568c42FE6360Ee4230Eb220aA79Cfad82ca3d",
        "100000000000000000"
      ],
      "transaction": {
        "type": "0x02",
        "from": "0x15d2d027c8e2ccd5295e35659b76e61def483ee7",
        "to": "0x326c977e6efc84e512bb9c30f76e30c160ed06fb",
        "gas": "0x10816",
        "value": "0x0",
        "data": "0x095ea7b300000000000000000000000085b568c42fe6360ee4230eb220aa79cfad82ca3d000000000000000000000000000000000000000000000000016345785d8a0000",
        "nonce": "0x54",
        "accessList": []
      },
      "additionalContracts": []
    },
    {
      "hash": "0x92f17fc3f2a22711c064861a52eb8d7ebb69deebd697977adee6ebf820c5d28e",
      "transactionType": "CALL",
      "contractName": null,
      "contractAddress": "0x85b568c42FE6360Ee4230Eb220aA79Cfad82ca3d",
      "function": null,
      "arguments": null,
      "transaction": {
        "type": "0x02",
        "from": "0x15d2d027c8e2ccd5295e35659b76e61def483ee7",
        "to": "0x85b568c42fe6360ee4230eb220aa79cfad82ca3d",
        "gas": "0x1c9e7",
        "value": "0x0",
        "data": "0x34d9bdc3000000000000000000000000000000000000000000000000016345785d8a00000000000000000000000000000865b950a19da6abfd19521c79846f04aea20f2d",
        "nonce": "0x55",
        "accessList": []
      },
      "additionalContracts": []
    },
    {
      "hash": "0x51611635483df73c0f2bf67ba4d174ba6863a43e1e71df622a8d7a36ccd231c7",
      "transactionType": "CALL",
      "contractName": null,
      "contractAddress": "0x0865B950a19da6aBFd19521C79846F04aEA20F2d",
      "function": null,
      "arguments": null,
      "transaction": {
        "type": "0x02",
        "from": "0x15d2d027c8e2ccd5295e35659b76e61def483ee7",
        "to": "0x0865b950a19da6abfd19521c79846f04aea20f2d",
        "gas": "0x41879",
        "value": "0x0",
        "data": "0x03321a8a306f6d48394b6c543541686f566532386a6c4d300000000000000000000000000000000000000000000000000000000000000000000000000000000000000000",
        "nonce": "0x56",
        "accessList": []
      },
      "additionalContracts": []
    }
  ],
  "receipts": [],
  "libraries": [],
  "pending": [
    "0x3caa4cb39546dda8d478706755a16b3538cd3d67dfd1f171f2e02758ead81d02",
    "0x92f17fc3f2a22711c064861a52eb8d7ebb69deebd697977adee6ebf820c5d28e",
    "0x51611635483df73c0f2bf67ba4d174ba6863a43e1e71df622a8d7a36ccd231c7"
  ],
  "path": "/Users/joaoabrantis/github/writingmonks/contracts/broadcast/TestRelayerMumbai.s.sol/80001/run-latest.json",
  "returns": {},
  "timestamp": 1663233682,
  "commit": "b896821"
}