{
  "transactions": [
    {
      "hash": "0x7a7e0f091f897cfce7c3a04472c12fd4a7cb8605d5302445cbfc55a39a5d9fc3",
      "transactionType": "CALL",
      "contractName": "LinkToken",
      "contractAddress": "0x326C977E6efc84E512bB9C30f76E30c160eD06FB",
      "function": "approve(address,uint256):(bool)",
      "arguments": [
        "0x85b568c42FE6360Ee4230Eb220aA79Cfad82ca3d",
        "100000000000000000"
      ],
      "transaction": {
        "type": "0x02",
        "from": "0x15d2d027c8e2ccd5295e35659b76e61def483ee7",
        "to": "0x326c977e6efc84e512bb9c30f76e30c160ed06fb",
        "gas": "0x10816",
        "value": "0x0",
        "data": "0x095ea7b300000000000000000000000085b568c42fe6360ee4230eb220aa79cfad82ca3d000000000000000000000000000000000000000000000000016345785d8a0000",
        "nonce": "0x4e",
        "accessList": []
      },
      "additionalContracts": []
    },
    {
      "hash": "0x512d614618843bb2d509cbf6ab3f8e8a6c51e43abad7666dd17cb5721078db53",
      "transactionType": "CALL",
      "contractName": null,
      "contractAddress": "0x85b568c42FE6360Ee4230Eb220aA79Cfad82ca3d",
      "function": null,
      "arguments": null,
      "transaction": {
        "type": "0x02",
        "from": "0x15d2d027c8e2ccd5295e35659b76e61def483ee7",
        "to": "0x85b568c42fe6360ee4230eb220aa79cfad82ca3d",
        "gas": "0x1c9e7",
        "value": "0x0",
        "data": "0x34d9bdc3000000000000000000000000000000000000000000000000016345785d8a00000000000000000000000000000865b950a19da6abfd19521c79846f04aea20f2d",
        "nonce": "0x4f",
        "accessList": []
      },
      "additionalContracts": []
    },
    {
      "hash": "0xdcc754f935625cf3c474eed071c0c407c270c9b74da36a8bdf5a22dcf7928b00",
      "transactionType": "CALL",
      "contractName": null,
      "contractAddress": "0x0865B950a19da6aBFd19521C79846F04aEA20F2d",
      "function": null,
      "arguments": null,
      "transaction": {
        "type": "0x02",
        "from": "0x15d2d027c8e2ccd5295e35659b76e61def483ee7",
        "to": "0x0865b950a19da6abfd19521c79846f04aea20f2d",
        "gas": "0x41879",
        "value": "0x0",
        "data": "0x03321a8a306f6d48394b6c543541686f566532386a6c4d300000000000000000000000000000000000000000000000000000000000000000000000000000000000000000",
        "nonce": "0x50",
        "accessList": []
      },
      "additionalContracts": []
    }
  ],
  "receipts": [
    {
      "transactionHash": "0x7a7e0f091f897cfce7c3a04472c12fd4a7cb8605d5302445cbfc55a39a5d9fc3",
      "transactionIndex": "0x1",
      "blockHash": "0x6a4c9c25fb07d5a98739210ddee6c0f43a561e232a7b92638c93f2abecc10f46",
      "blockNumber": "0x1acf96e",
      "from": "0x15d2d027c8E2CcD5295E35659B76E61dEF483eE7",
      "to": "0x326C977E6efc84E512bB9C30f76E30c160eD06FB",
      "cumulativeGasUsed": "0x16b44",
      "gasUsed": "0xb493",
      "contractAddress": null,
      "logs": [
        {
          "address": "0x326C977E6efc84E512bB9C30f76E30c160eD06FB",
          "topics": [
            "0x8c5be1e5ebec7d5bd14f71427d1e84f3dd0314c0f7b2291e5b200ac8c7c3b925",
            "0x00000000000000000000000015d2d027c8e2ccd5295e35659b76e61def483ee7",
            "0x00000000000000000000000085b568c42fe6360ee4230eb220aa79cfad82ca3d"
          ],
          "data": "0x000000000000000000000000000000000000000000000000016345785d8a0000",
          "blockHash": "0x6a4c9c25fb07d5a98739210ddee6c0f43a561e232a7b92638c93f2abecc10f46",
          "blockNumber": "0x1acf96e",
          "transactionHash": "0x7a7e0f091f897cfce7c3a04472c12fd4a7cb8605d5302445cbfc55a39a5d9fc3",
          "transactionIndex": "0x1",
          "logIndex": "0x2",
          "removed": false
        },
        {
          "address": "0x0000000000000000000000000000000000001010",
          "topics": [
            "0x4dfe1bbbcf077ddc3e01291eea2d5c70c2b422b415d95645b9adcfd678cb1d63",
            "0x0000000000000000000000000000000000000000000000000000000000001010",
            "0x00000000000000000000000015d2d027c8e2ccd5295e35659b76e61def483ee7",
            "0x000000000000000000000000be188d6641e8b680743a4815dfa0f6208038960f"
          ],
          "data": "0x00000000000000000000000000000000000000000000000000007e212fbdfa000000000000000000000000000000000000000000000000000375eca88c5f3958000000000000000000000000000000000000000000002558dbc408cded23a8b200000000000000000000000000000000000000000000000003756e875ca13f58000000000000000000000000000000000000000000002558dbc486ef1ce1a2b2",
          "blockHash": "0x6a4c9c25fb07d5a98739210ddee6c0f43a561e232a7b92638c93f2abecc10f46",
          "blockNumber": "0x1acf96e",
          "transactionHash": "0x7a7e0f091f897cfce7c3a04472c12fd4a7cb8605d5302445cbfc55a39a5d9fc3",
          "transactionIndex": "0x1",
          "logIndex": "0x3",
          "removed": false
        }
      ],
      "status": "0x1",
      "logsBloom": "0x00000000000000040080000000000000000000000000000000000000000000000000000000000000000000000000000000008000000040000000000000200000000000000000000000000000000000800000000000000000000100000000004000000000000000000000000000000000000000000000000080000000000000000000000000000000000000000000000000000000000090000000000000400000220000000800000000000000000000000000000000000000000000000000004000000000000000000001000000000000000000000000000000100040000000000810000000000000001000000000000000000000000000000000000000100000",
      "type": "0x2",
      "effectiveGasPrice": "0xb2d05e0e"
    },
    {
      "transactionHash": "0x512d614618843bb2d509cbf6ab3f8e8a6c51e43abad7666dd17cb5721078db53",
      "transactionIndex": "0x2",
      "blockHash": "0x6a4c9c25fb07d5a98739210ddee6c0f43a561e232a7b92638c93f2abecc10f46",
      "blockNumber": "0x1acf96e",
      "from": "0x15d2d027c8E2CcD5295E35659B76E61dEF483eE7",
      "to": "0x85b568c42FE6360Ee4230Eb220aA79Cfad82ca3d",
      "cumulativeGasUsed": "0x2a45d",
      "gasUsed": "0x13919",
      "contractAddress": null,
      "logs": [
        {
          "address": "0x326C977E6efc84E512bB9C30f76E30c160eD06FB",
          "topics": [
            "0xddf252ad1be2c89b69c2b068fc378daa952ba7f163c4a11628f55a4df523b3ef",
            "0x00000000000000000000000015d2d027c8e2ccd5295e35659b76e61def483ee7",
            "0x00000000000000000000000085b568c42fe6360ee4230eb220aa79cfad82ca3d"
          ],
          "data": "0x000000000000000000000000000000000000000000000000016345785d8a0000",
          "blockHash": "0x6a4c9c25fb07d5a98739210ddee6c0f43a561e232a7b92638c93f2abecc10f46",
          "blockNumber": "0x1acf96e",
          "transactionHash": "0x512d614618843bb2d509cbf6ab3f8e8a6c51e43abad7666dd17cb5721078db53",
          "transactionIndex": "0x2",
          "logIndex": "0x4",
          "removed": false
        },
        {
          "address": "0x0000000000000000000000000000000000001010",
          "topics": [
            "0x4dfe1bbbcf077ddc3e01291eea2d5c70c2b422b415d95645b9adcfd678cb1d63",
            "0x0000000000000000000000000000000000000000000000000000000000001010",
            "0x00000000000000000000000015d2d027c8e2ccd5295e35659b76e61def483ee7",
            "0x000000000000000000000000be188d6641e8b680743a4815dfa0f6208038960f"
          ],
          "data": "0x0000000000000000000000000000000000000000000000000000dab239472e0000000000000000000000000000000000000000000000000003756e875c975f4e000000000000000000000000000000000000000000002558dbc486ef1ce1a2b2000000000000000000000000000000000000000000000000037493d52350314e000000000000000000000000000000000000000000002558dbc561a15628d0b2",
          "blockHash": "0x6a4c9c25fb07d5a98739210ddee6c0f43a561e232a7b92638c93f2abecc10f46",
          "blockNumber": "0x1acf96e",
          "transactionHash": "0x512d614618843bb2d509cbf6ab3f8e8a6c51e43abad7666dd17cb5721078db53",
          "transactionIndex": "0x2",
          "logIndex": "0x5",
          "removed": false
        }
      ],
      "status": "0x1",
      "logsBloom": "0x00000000000000040080000000000000000000000000000000000000000000000000000000000000000000000000000000008000000040000000000000000000000000000000000000000008000000800000000000000000000100000000004000000000000000000000000000000000000000000000000080000010000000000000000000000000000000000000000000000000000090000000000000400000200000000800000000000000000000000000000000000000000000000000004000000002000000000001000000000000000000000000000000100040000000000800000000000000001000000000000000000000000000000000000000100000",
      "type": "0x2",
      "effectiveGasPrice": "0xb2d05e0e"
    },
    {
      "transactionHash": "0xdcc754f935625cf3c474eed071c0c407c270c9b74da36a8bdf5a22dcf7928b00",
      "transactionIndex": "0x3",
      "blockHash": "0x6a4c9c25fb07d5a98739210ddee6c0f43a561e232a7b92638c93f2abecc10f46",
      "blockNumber": "0x1acf96e",
      "from": "0x15d2d027c8E2CcD5295E35659B76E61dEF483eE7",
      "to": "0x0865B950a19da6aBFd19521C79846F04aEA20F2d",
      "cumulativeGasUsed": "0x59b71",
      "gasUsed": "0x2f714",
      "contractAddress": null,
      "logs": [
        {
          "address": "0x85b568c42FE6360Ee4230Eb220aA79Cfad82ca3d",
          "topics": [
            "0xb5e6e01e79f91267dc17b4e6314d5d4d03593d2ceee0fbb452b750bd70ea5af9",
            "0x551502c1903452b1a0479d5cdfa326612af9b0ddf209a670dfb4f41a6581e35e"
          ],
          "data": "0x",
          "blockHash": "0x6a4c9c25fb07d5a98739210ddee6c0f43a561e232a7b92638c93f2abecc10f46",
          "blockNumber": "0x1acf96e",
          "transactionHash": "0xdcc754f935625cf3c474eed071c0c407c270c9b74da36a8bdf5a22dcf7928b00",
          "transactionIndex": "0x3",
          "logIndex": "0x6",
          "removed": false
        },
        {
          "address": "0x326C977E6efc84E512bB9C30f76E30c160eD06FB",
          "topics": [
            "0xddf252ad1be2c89b69c2b068fc378daa952ba7f163c4a11628f55a4df523b3ef",
            "0x00000000000000000000000085b568c42fe6360ee4230eb220aa79cfad82ca3d",
            "0x000000000000000000000000234c799054d5298777c37f1b8526d895f8d28874"
          ],
          "data": "0x000000000000000000000000000000000000000000000000016345785d8a0000",
          "blockHash": "0x6a4c9c25fb07d5a98739210ddee6c0f43a561e232a7b92638c93f2abecc10f46",
          "blockNumber": "0x1acf96e",
          "transactionHash": "0xdcc754f935625cf3c474eed071c0c407c270c9b74da36a8bdf5a22dcf7928b00",
          "transactionIndex": "0x3",
          "logIndex": "0x7",
          "removed": false
        },
        {
          "address": "0x326C977E6efc84E512bB9C30f76E30c160eD06FB",
          "topics": [
            "0xe19260aff97b920c7df27010903aeb9c8d2be5d310a2c67824cf3f15396e4c16",
            "0x00000000000000000000000085b568c42fe6360ee4230eb220aa79cfad82ca3d",
            "0x000000000000000000000000234c799054d5298777c37f1b8526d895f8d28874"
          ],
          "data": "0x000000000000000000000000000000000000000000000000016345785d8a0000000000000000000000000000000000000000000000000000000000000000004000000000000000000000000000000000000000000000000000000000000001843c6d41b9000000000000000000000000000000000000000000000000000000000000000000000000000000000000000000000000000000000000000000000000000000006166633661613064336136633438633062623531616163613563323831663138fce05862000000000000000000000000000000000000000000000000000000000000000000000000000000000000000000000000000000000000000000000003000000000000000000000000000000000000000000000000000000000000000200000000000000000000000000000000000000000000000000000000000000e000000000000000000000000000000000000000000000000000000000000000646370756278283038363562393530613139646136616266643139353231633739383436663034616561323066326466706f7374496474306f6d48394b6c543541686f566532386a6c4d3064616449647400000000000000000000000000000000000000000000000000000000000000000000000000000000000000000000000000000000000000000000000000000000000000000000000000000000",
          "blockHash": "0x6a4c9c25fb07d5a98739210ddee6c0f43a561e232a7b92638c93f2abecc10f46",
          "blockNumber": "0x1acf96e",
          "transactionHash": "0xdcc754f935625cf3c474eed071c0c407c270c9b74da36a8bdf5a22dcf7928b00",
          "transactionIndex": "0x3",
          "logIndex": "0x8",
          "removed": false
        },
        {
          "address": "0x234C799054D5298777C37F1B8526d895f8D28874",
          "topics": [
            "0xd8d7ecc4800d25fa53ce0372f13a416d98907a7ef3d8d3bdd79cf4fe75529c65",
            "0x6166633661613064336136633438633062623531616163613563323831663138"
          ],
          "data": "0x00000000000000000000000085b568c42fe6360ee4230eb220aa79cfad82ca3d551502c1903452b1a0479d5cdfa326612af9b0ddf209a670dfb4f41a6581e35e000000000000000000000000000000000000000000000000016345785d8a000000000000000000000000000085b568c42fe6360ee4230eb220aa79cfad82ca3dfce0586200000000000000000000000000000000000000000000000000000000000000000000000000000000000000000000000000000000000000006322e9e40000000000000000000000000000000000000000000000000000000000000002000000000000000000000000000000000000000000000000000000000000010000000000000000000000000000000000000000000000000000000000000000646370756278283038363562393530613139646136616266643139353231633739383436663034616561323066326466706f7374496474306f6d48394b6c543541686f566532386a6c4d30646164496474000000000000000000000000000000000000000000000000000000000000000000000000000000000000000000000000",
          "blockHash": "0x6a4c9c25fb07d5a98739210ddee6c0f43a561e232a7b92638c93f2abecc10f46",
          "blockNumber": "0x1acf96e",
          "transactionHash": "0xdcc754f935625cf3c474eed071c0c407c270c9b74da36a8bdf5a22dcf7928b00",
          "transactionIndex": "0x3",
          "logIndex": "0x9",
          "removed": false
        },
        {
          "address": "0x0000000000000000000000000000000000001010",
          "topics": [
            "0x4dfe1bbbcf077ddc3e01291eea2d5c70c2b422b415d95645b9adcfd678cb1d63",
            "0x0000000000000000000000000000000000000000000000000000000000001010",
            "0x00000000000000000000000015d2d027c8e2ccd5295e35659b76e61def483ee7",
            "0x000000000000000000000000be188d6641e8b680743a4815dfa0f6208038960f"
          ],
          "data": "0x00000000000000000000000000000000000000000000000000021235bef95800000000000000000000000000000000000000000000000000037493d5233f11f0000000000000000000000000000000000000000000002558dbc561a15628d0b20000000000000000000000000000000000000000000000000372819f6445b9f0000000000000000000000000000000000000000000002558dbc773d7152228b2",
          "blockHash": "0x6a4c9c25fb07d5a98739210ddee6c0f43a561e232a7b92638c93f2abecc10f46",
          "blockNumber": "0x1acf96e",
          "transactionHash": "0xdcc754f935625cf3c474eed071c0c407c270c9b74da36a8bdf5a22dcf7928b00",
          "transactionIndex": "0x3",
          "logIndex": "0xa",
          "removed": false
        }
      ],
      "status": "0x1",
      "logsBloom": "0x01000000000000040080000000000000000000000001001000000000020000000000000000000000000000000000000000008040000040000000000000000000000000010000000000000008000000840000000800000000000320000000004000000000000202000000000000000000000000000000080080008010000000000000000080000000000000000001000000000420000090000000000000400000200000000800000000000000000000000200000000010000000000000000004000000002000400000001000000000000000000000000000000100040400000000800000000000000001000004000000000000000001000000000000000100000",
      "type": "0x2",
      "effectiveGasPrice": "0xb2d05e0e"
    }
  ],
  "libraries": [],
  "pending": [],
  "path": "/Users/joaoabrantis/github/writingmonks/contracts/broadcast/TestRelayerMumbai.s.sol/80001/run-latest.json",
  "returns": {},
  "timestamp": 1663232187,
  "commit": "b896821"
}