{
  "transactions": [
    {
      "hash": "0x3caa4cb39546dda8d478706755a16b3538cd3d67dfd1f171f2e02758ead81d02",
      "transactionType": "CALL",
      "contractName": "LinkToken",
      "contractAddress": "0x326C977E6efc84E512bB9C30f76E30c160eD06FB",
      "function": "approve(address,uint256):(bool)",
      "arguments": [
        "0x85b568c42FE6360Ee4230Eb220aA79Cfad82ca3d",
        "100000000000000000"
      ],
      "transaction": {
        "type": "0x02",
        "from": "0x15d2d027c8e2ccd5295e35659b76e61def483ee7",
        "to": "0x326c977e6efc84e512bb9c30f76e30c160ed06fb",
        "gas": "0x10816",
        "value": "0x0",
        "data": "0x095ea7b300000000000000000000000085b568c42fe6360ee4230eb220aa79cfad82ca3d000000000000000000000000000000000000000000000000016345785d8a0000",
        "nonce": "0x54",
        "accessList": []
      },
      "additionalContracts": []
    },
    {
      "hash": "0x92f17fc3f2a22711c064861a52eb8d7ebb69deebd697977adee6ebf820c5d28e",
      "transactionType": "CALL",
      "contractName": null,
      "contractAddress": "0x85b568c42FE6360Ee4230Eb220aA79Cfad82ca3d",
      "function": null,
      "arguments": null,
      "transaction": {
        "type": "0x02",
        "from": "0x15d2d027c8e2ccd5295e35659b76e61def483ee7",
        "to": "0x85b568c42fe6360ee4230eb220aa79cfad82ca3d",
        "gas": "0x1c9e7",
        "value": "0x0",
        "data": "0x34d9bdc3000000000000000000000000000000000000000000000000016345785d8a00000000000000000000000000000865b950a19da6abfd19521c79846f04aea20f2d",
        "nonce": "0x55",
        "accessList": []
      },
      "additionalContracts": []
    },
    {
      "hash": "0x51611635483df73c0f2bf67ba4d174ba6863a43e1e71df622a8d7a36ccd231c7",
      "transactionType": "CALL",
      "contractName": null,
      "contractAddress": "0x0865B950a19da6aBFd19521C79846F04aEA20F2d",
      "function": null,
      "arguments": null,
      "transaction": {
        "type": "0x02",
        "from": "0x15d2d027c8e2ccd5295e35659b76e61def483ee7",
        "to": "0x0865b950a19da6abfd19521c79846f04aea20f2d",
        "gas": "0x41879",
        "value": "0x0",
        "data": "0x03321a8a306f6d48394b6c543541686f566532386a6c4d300000000000000000000000000000000000000000000000000000000000000000000000000000000000000000",
        "nonce": "0x56",
        "accessList": []
      },
      "additionalContracts": []
    }
  ],
  "receipts": [
    {
      "transactionHash": "0x3caa4cb39546dda8d478706755a16b3538cd3d67dfd1f171f2e02758ead81d02",
      "transactionIndex": "0x4",
      "blockHash": "0x1747bc9d9d82c89187feecec739300caf0109dfc35ddbffaca44dc16b15e2acf",
      "blockNumber": "0x1acfa9a",
      "from": "0x15d2d027c8E2CcD5295E35659B76E61dEF483eE7",
      "to": "0x326C977E6efc84E512bB9C30f76E30c160eD06FB",
      "cumulativeGasUsed": "0x341b6",
      "gasUsed": "0xb493",
      "contractAddress": null,
      "logs": [
        {
          "address": "0x326C977E6efc84E512bB9C30f76E30c160eD06FB",
          "topics": [
            "0x8c5be1e5ebec7d5bd14f71427d1e84f3dd0314c0f7b2291e5b200ac8c7c3b925",
            "0x00000000000000000000000015d2d027c8e2ccd5295e35659b76e61def483ee7",
            "0x00000000000000000000000085b568c42fe6360ee4230eb220aa79cfad82ca3d"
          ],
          "data": "0x000000000000000000000000000000000000000000000000016345785d8a0000",
          "blockHash": "0x1747bc9d9d82c89187feecec739300caf0109dfc35ddbffaca44dc16b15e2acf",
          "blockNumber": "0x1acfa9a",
          "transactionHash": "0x3caa4cb39546dda8d478706755a16b3538cd3d67dfd1f171f2e02758ead81d02",
          "transactionIndex": "0x4",
          "logIndex": "0xa",
          "removed": false
        },
        {
          "address": "0x0000000000000000000000000000000000001010",
          "topics": [
            "0x4dfe1bbbcf077ddc3e01291eea2d5c70c2b422b415d95645b9adcfd678cb1d63",
            "0x0000000000000000000000000000000000000000000000000000000000001010",
            "0x00000000000000000000000015d2d027c8e2ccd5295e35659b76e61def483ee7",
            "0x000000000000000000000000f903ba9e006193c1527bfbe65fe2123704ea3f99"
          ],
          "data": "0x00000000000000000000000000000000000000000000000000007e212fbdfa00000000000000000000000000000000000000000000000000036f16963be2fdd800000000000000000000000000000000000000000000070892c8abda0928978e000000000000000000000000000000000000000000000000036e98750c2503d800000000000000000000000000000000000000000000070892c929fb38e6918e",
          "blockHash": "0x1747bc9d9d82c89187feecec739300caf0109dfc35ddbffaca44dc16b15e2acf",
          "blockNumber": "0x1acfa9a",
          "transactionHash": "0x3caa4cb39546dda8d478706755a16b3538cd3d67dfd1f171f2e02758ead81d02",
          "transactionIndex": "0x4",
          "logIndex": "0xb",
          "removed": false
        }
      ],
      "status": "0x1",
      "logsBloom": "0x00000000000000040080000000000000000000000000000000000010000000000000000000000020000000000000000000008000000040000000000000200000000000000000000000000000000000800000000000000000000100000000000000000000000000000000000000000000000000000000000080000000000000000000000000000000000000000000000000000000000010000000000000400000220000000800000000000000000000000000000000000000000000000000004000000000000000000001000000000000000000000000000000100000001000000810000000000000001000000000000000000000000000000000000000100000",
      "type": "0x2",
      "effectiveGasPrice": "0xb2d05e0d"
    },
    {
      "transactionHash": "0x92f17fc3f2a22711c064861a52eb8d7ebb69deebd697977adee6ebf820c5d28e",
      "transactionIndex": "0x5",
      "blockHash": "0x1747bc9d9d82c89187feecec739300caf0109dfc35ddbffaca44dc16b15e2acf",
      "blockNumber": "0x1acfa9a",
      "from": "0x15d2d027c8E2CcD5295E35659B76E61dEF483eE7",
      "to": "0x85b568c42FE6360Ee4230Eb220aA79Cfad82ca3d",
      "cumulativeGasUsed": "0x47acf",
      "gasUsed": "0x13919",
      "contractAddress": null,
      "logs": [
        {
          "address": "0x326C977E6efc84E512bB9C30f76E30c160eD06FB",
          "topics": [
            "0xddf252ad1be2c89b69c2b068fc378daa952ba7f163c4a11628f55a4df523b3ef",
            "0x00000000000000000000000015d2d027c8e2ccd5295e35659b76e61def483ee7",
            "0x00000000000000000000000085b568c42fe6360ee4230eb220aa79cfad82ca3d"
          ],
          "data": "0x000000000000000000000000000000000000000000000000016345785d8a0000",
          "blockHash": "0x1747bc9d9d82c89187feecec739300caf0109dfc35ddbffaca44dc16b15e2acf",
          "blockNumber": "0x1acfa9a",
          "transactionHash": "0x92f17fc3f2a22711c064861a52eb8d7ebb69deebd697977adee6ebf820c5d28e",
          "transactionIndex": "0x5",
          "logIndex": "0xc",
          "removed": false
        },
        {
          "address": "0x0000000000000000000000000000000000001010",
          "topics": [
            "0x4dfe1bbbcf077ddc3e01291eea2d5c70c2b422b415d95645b9adcfd678cb1d63",
            "0x0000000000000000000000000000000000000000000000000000000000001010",
            "0x00000000000000000000000015d2d027c8e2ccd5295e35659b76e61def483ee7",
            "0x000000000000000000000000f903ba9e006193c1527bfbe65fe2123704ea3f99"
          ],
          "data": "0x0000000000000000000000000000000000000000000000000000dab239472e00000000000000000000000000000000000000000000000000036e98750c1bd86100000000000000000000000000000000000000000000070892c929fb38e6918e000000000000000000000000000000000000000000000000036dbdc2d2d4aa6100000000000000000000000000000000000000000000070892ca04ad722dbf8e",
          "blockHash": "0x1747bc9d9d82c89187feecec739300caf0109dfc35ddbffaca44dc16b15e2acf",
          "blockNumber": "0x1acfa9a",
          "transactionHash": "0x92f17fc3f2a22711c064861a52eb8d7ebb69deebd697977adee6ebf820c5d28e",
          "transactionIndex": "0x5",
          "logIndex": "0xd",
          "removed": false
        }
      ],
      "status": "0x1",
      "logsBloom": "0x00000000000000040080000000000000000000000000000000000010000000000000000000000020000000000000000000008000000040000000000000000000000000000000000000000008000000800000000000000000000100000000000000000000000000000000000000000000000000000000000080000010000000000000000000000000000000000000000000000000000010000000000000400000200000000800000000000000000000000000000000000000000000000000004000000002000000000001000000000000000000000000000000100000001000000800000000000000001000000000000000000000000000000000000000100000",
      "type": "0x2",
      "effectiveGasPrice": "0xb2d05e0d"
    },
    {
      "transactionHash": "0x51611635483df73c0f2bf67ba4d174ba6863a43e1e71df622a8d7a36ccd231c7",
      "transactionIndex": "0x6",
      "blockHash": "0x1747bc9d9d82c89187feecec739300caf0109dfc35ddbffaca44dc16b15e2acf",
      "blockNumber": "0x1acfa9a",
      "from": "0x15d2d027c8E2CcD5295E35659B76E61dEF483eE7",
      "to": "0x0865B950a19da6aBFd19521C79846F04aEA20F2d",
      "cumulativeGasUsed": "0x771e3",
      "gasUsed": "0x2f714",
      "contractAddress": null,
      "logs": [
        {
          "address": "0x85b568c42FE6360Ee4230Eb220aA79Cfad82ca3d",
          "topics": [
            "0xb5e6e01e79f91267dc17b4e6314d5d4d03593d2ceee0fbb452b750bd70ea5af9",
            "0x84fb4bdf9a122119d39f8db3a573598841608c1f31bd92cd4267b90b53f06f17"
          ],
          "data": "0x",
          "blockHash": "0x1747bc9d9d82c89187feecec739300caf0109dfc35ddbffaca44dc16b15e2acf",
          "blockNumber": "0x1acfa9a",
          "transactionHash": "0x51611635483df73c0f2bf67ba4d174ba6863a43e1e71df622a8d7a36ccd231c7",
          "transactionIndex": "0x6",
          "logIndex": "0xe",
          "removed": false
        },
        {
          "address": "0x326C977E6efc84E512bB9C30f76E30c160eD06FB",
          "topics": [
            "0xddf252ad1be2c89b69c2b068fc378daa952ba7f163c4a11628f55a4df523b3ef",
            "0x00000000000000000000000085b568c42fe6360ee4230eb220aa79cfad82ca3d",
            "0x000000000000000000000000234c799054d5298777c37f1b8526d895f8d28874"
          ],
          "data": "0x000000000000000000000000000000000000000000000000016345785d8a0000",
          "blockHash": "0x1747bc9d9d82c89187feecec739300caf0109dfc35ddbffaca44dc16b15e2acf",
          "blockNumber": "0x1acfa9a",
          "transactionHash": "0x51611635483df73c0f2bf67ba4d174ba6863a43e1e71df622a8d7a36ccd231c7",
          "transactionIndex": "0x6",
          "logIndex": "0xf",
          "removed": false
        },
        {
          "address": "0x326C977E6efc84E512bB9C30f76E30c160eD06FB",
          "topics": [
            "0xe19260aff97b920c7df27010903aeb9c8d2be5d310a2c67824cf3f15396e4c16",
            "0x00000000000000000000000085b568c42fe6360ee4230eb220aa79cfad82ca3d",
            "0x000000000000000000000000234c799054d5298777c37f1b8526d895f8d28874"
          ],
          "data": "0x000000000000000000000000000000000000000000000000016345785d8a0000000000000000000000000000000000000000000000000000000000000000004000000000000000000000000000000000000000000000000000000000000001843c6d41b9000000000000000000000000000000000000000000000000000000000000000000000000000000000000000000000000000000000000000000000000000000006166633661613064336136633438633062623531616163613563323831663138fce05862000000000000000000000000000000000000000000000000000000000000000000000000000000000000000000000000000000000000000000000005000000000000000000000000000000000000000000000000000000000000000200000000000000000000000000000000000000000000000000000000000000e000000000000000000000000000000000000000000000000000000000000000646370756278283038363562393530613139646136616266643139353231633739383436663034616561323066326466706f7374496474306f6d48394b6c543541686f566532386a6c4d3064616449647400000000000000000000000000000000000000000000000000000000000000000000000000000000000000000000000000000000000000000000000000000000000000000000000000000000",
          "blockHash": "0x1747bc9d9d82c89187feecec739300caf0109dfc35ddbffaca44dc16b15e2acf",
          "blockNumber": "0x1acfa9a",
          "transactionHash": "0x51611635483df73c0f2bf67ba4d174ba6863a43e1e71df622a8d7a36ccd231c7",
          "transactionIndex": "0x6",
          "logIndex": "0x10",
          "removed": false
        },
        {
          "address": "0x234C799054D5298777C37F1B8526d895f8D28874",
          "topics": [
            "0xd8d7ecc4800d25fa53ce0372f13a416d98907a7ef3d8d3bdd79cf4fe75529c65",
            "0x6166633661613064336136633438633062623531616163613563323831663138"
          ],
          "data": "0x00000000000000000000000085b568c42fe6360ee4230eb220aa79cfad82ca3d84fb4bdf9a122119d39f8db3a573598841608c1f31bd92cd4267b90b53f06f17000000000000000000000000000000000000000000000000016345785d8a000000000000000000000000000085b568c42fe6360ee4230eb220aa79cfad82ca3dfce0586200000000000000000000000000000000000000000000000000000000000000000000000000000000000000000000000000000000000000006322efc50000000000000000000000000000000000000000000000000000000000000002000000000000000000000000000000000000000000000000000000000000010000000000000000000000000000000000000000000000000000000000000000646370756278283038363562393530613139646136616266643139353231633739383436663034616561323066326466706f7374496474306f6d48394b6c543541686f566532386a6c4d30646164496474000000000000000000000000000000000000000000000000000000000000000000000000000000000000000000000000",
          "blockHash": "0x1747bc9d9d82c89187feecec739300caf0109dfc35ddbffaca44dc16b15e2acf",
          "blockNumber": "0x1acfa9a",
          "transactionHash": "0x51611635483df73c0f2bf67ba4d174ba6863a43e1e71df622a8d7a36ccd231c7",
          "transactionIndex": "0x6",
          "logIndex": "0x11",
          "removed": false
        },
        {
          "address": "0x0000000000000000000000000000000000001010",
          "topics": [
            "0x4dfe1bbbcf077ddc3e01291eea2d5c70c2b422b415d95645b9adcfd678cb1d63",
            "0x0000000000000000000000000000000000000000000000000000000000001010",
            "0x00000000000000000000000015d2d027c8e2ccd5295e35659b76e61def483ee7",
            "0x000000000000000000000000f903ba9e006193c1527bfbe65fe2123704ea3f99"
          ],
          "data": "0x00000000000000000000000000000000000000000000000000021235bef95800000000000000000000000000000000000000000000000000036dbdc2d2c4c41c00000000000000000000000000000000000000000000070892ca04ad722dbf8e000000000000000000000000000000000000000000000000036bab8d13cb6c1c00000000000000000000000000000000000000000000070892cc16e33127178e",
          "blockHash": "0x1747bc9d9d82c89187feecec739300caf0109dfc35ddbffaca44dc16b15e2acf",
          "blockNumber": "0x1acfa9a",
          "transactionHash": "0x51611635483df73c0f2bf67ba4d174ba6863a43e1e71df622a8d7a36ccd231c7",
          "transactionIndex": "0x6",
          "logIndex": "0x12",
          "removed": false
        }
      ],
      "status": "0x1",
      "logsBloom": "0x01080000000000040080000000000000000000000001001000000010020000000000000000000020000000000000000000008000000040000010000000000000000000010000000000000008000000840000000800000000000320000000000000000000000002000000000000000000000000000000080080008010000000000000000080000000000000000001000000000420000010000000000000400000200000000800000000000000000000000200000000010000000000000000004000000002000400000001000000000000000000000000000000100000401000000800000000000000001000004000000000000000000000000000000000900000",
      "type": "0x2",
      "effectiveGasPrice": "0xb2d05e0d"
    }
  ],
  "libraries": [],
  "pending": [],
  "path": "/Users/joaoabrantis/github/writingmonks/contracts/broadcast/TestRelayerMumbai.s.sol/80001/run-latest.json",
  "returns": {},
  "timestamp": 1663233689,
  "commit": "b896821"
}