{
  "transactions": [
    {
      "hash": "0xf971f7073e88b8383d2fca39b3f773f248fe0da7049b4699d39b600667a9a498",
      "transactionType": "CALL",
      "contractName": "LinkToken",
      "contractAddress": "0x326C977E6efc84E512bB9C30f76E30c160eD06FB",
      "function": "approve(address,uint256):(bool)",
      "arguments": [
        "0x85b568c42FE6360Ee4230Eb220aA79Cfad82ca3d",
        "100000000000000000"
      ],
      "transaction": {
        "type": "0x02",
        "from": "0x15d2d027c8e2ccd5295e35659b76e61def483ee7",
        "to": "0x326c977e6efc84e512bb9c30f76e30c160ed06fb",
        "gas": "0x10816",
        "value": "0x0",
        "data": "0x095ea7b300000000000000000000000085b568c42fe6360ee4230eb220aa79cfad82ca3d000000000000000000000000000000000000000000000000016345785d8a0000",
        "nonce": "0x4b",
        "accessList": []
      },
      "additionalContracts": []
    },
    {
      "hash": "0x0469884cc7daff2928059a91c3044d00fd11d894ce02c32e37472211aa1cf87d",
      "transactionType": "CALL",
      "contractName": null,
      "contractAddress": "0x85b568c42FE6360Ee4230Eb220aA79Cfad82ca3d",
      "function": null,
      "arguments": null,
      "transaction": {
        "type": "0x02",
        "from": "0x15d2d027c8e2ccd5295e35659b76e61def483ee7",
        "to": "0x85b568c42fe6360ee4230eb220aa79cfad82ca3d",
        "gas": "0x1c9e7",
        "value": "0x0",
        "data": "0x34d9bdc3000000000000000000000000000000000000000000000000016345785d8a00000000000000000000000000000865b950a19da6abfd19521c79846f04aea20f2d",
        "nonce": "0x4c",
        "accessList": []
      },
      "additionalContracts": []
    },
    {
      "hash": "0x8fcf25416d38ee795909a452006f6a88088f668d39b1cec061636b1cbf90c6d4",
      "transactionType": "CALL",
      "contractName": null,
      "contractAddress": "0x0865B950a19da6aBFd19521C79846F04aEA20F2d",
      "function": null,
      "arguments": null,
      "transaction": {
        "type": "0x02",
        "from": "0x15d2d027c8e2ccd5295e35659b76e61def483ee7",
        "to": "0x0865b950a19da6abfd19521c79846f04aea20f2d",
        "gas": "0x3c42b",
        "value": "0x0",
        "data": "0x088d8ace00000000000000000000000000000000000000000000000015cae08e66da5000",
        "nonce": "0x4d",
        "accessList": []
      },
      "additionalContracts": []
    }
  ],
  "receipts": [
    {
      "transactionHash": "0xf971f7073e88b8383d2fca39b3f773f248fe0da7049b4699d39b600667a9a498",
      "transactionIndex": "0x6",
      "blockHash": "0x8a880e9293c6cccedeaaf698bc521edc6c870cfe8be6a5a108d9c466c7ed0514",
      "blockNumber": "0x1acf8a4",
      "from": "0x15d2d027c8E2CcD5295E35659B76E61dEF483eE7",
      "to": "0x326C977E6efc84E512bB9C30f76E30c160eD06FB",
      "cumulativeGasUsed": "0x1b7600",
      "gasUsed": "0xb493",
      "contractAddress": null,
      "logs": [
        {
          "address": "0x326C977E6efc84E512bB9C30f76E30c160eD06FB",
          "topics": [
            "0x8c5be1e5ebec7d5bd14f71427d1e84f3dd0314c0f7b2291e5b200ac8c7c3b925",
            "0x00000000000000000000000015d2d027c8e2ccd5295e35659b76e61def483ee7",
            "0x00000000000000000000000085b568c42fe6360ee4230eb220aa79cfad82ca3d"
          ],
          "data": "0x000000000000000000000000000000000000000000000000016345785d8a0000",
          "blockHash": "0x8a880e9293c6cccedeaaf698bc521edc6c870cfe8be6a5a108d9c466c7ed0514",
          "blockNumber": "0x1acf8a4",
          "transactionHash": "0xf971f7073e88b8383d2fca39b3f773f248fe0da7049b4699d39b600667a9a498",
          "transactionIndex": "0x6",
          "logIndex": "0xc",
          "removed": false
        },
        {
          "address": "0x0000000000000000000000000000000000001010",
          "topics": [
            "0x4dfe1bbbcf077ddc3e01291eea2d5c70c2b422b415d95645b9adcfd678cb1d63",
            "0x0000000000000000000000000000000000000000000000000000000000001010",
            "0x00000000000000000000000015d2d027c8e2ccd5295e35659b76e61def483ee7",
            "0x000000000000000000000000f903ba9e006193c1527bfbe65fe2123704ea3f99"
          ],
          "data": "0x00000000000000000000000000000000000000000000000000007e212fbdfa00000000000000000000000000000000000000000000000000037911f92421877b0000000000000000000000000000000000000000000007084c07b5e8453b3819000000000000000000000000000000000000000000000000037893d7f4638d7b0000000000000000000000000000000000000000000007084c08340974f93219",
          "blockHash": "0x8a880e9293c6cccedeaaf698bc521edc6c870cfe8be6a5a108d9c466c7ed0514",
          "blockNumber": "0x1acf8a4",
          "transactionHash": "0xf971f7073e88b8383d2fca39b3f773f248fe0da7049b4699d39b600667a9a498",
          "transactionIndex": "0x6",
          "logIndex": "0xd",
          "removed": false
        }
      ],
      "status": "0x1",
      "logsBloom": "0x00000000000000040080000000000000000000000000000000000010000000000000000000000020000000000000000000008000000040000000000000200000000000000000000000000000000000800000000000000000000100000000000000000000000000000000000000000000000000000000000080000000000000000000000000000000000000000000000000000000000010000000000000400000220000000800000000000000000000000000000000000000000000000000004000000000000000000001000000000000000000000000000000100000001000000810000000000000001000000000000000000000000000000000000000100000",
      "type": "0x2",
      "effectiveGasPrice": "0xb2d05e0d"
    },
    {
      "transactionHash": "0x0469884cc7daff2928059a91c3044d00fd11d894ce02c32e37472211aa1cf87d",
      "transactionIndex": "0x7",
      "blockHash": "0x8a880e9293c6cccedeaaf698bc521edc6c870cfe8be6a5a108d9c466c7ed0514",
      "blockNumber": "0x1acf8a4",
      "from": "0x15d2d027c8E2CcD5295E35659B76E61dEF483eE7",
      "to": "0x85b568c42FE6360Ee4230Eb220aA79Cfad82ca3d",
      "cumulativeGasUsed": "0x1caf19",
      "gasUsed": "0x13919",
      "contractAddress": null,
      "logs": [
        {
          "address": "0x326C977E6efc84E512bB9C30f76E30c160eD06FB",
          "topics": [
            "0xddf252ad1be2c89b69c2b068fc378daa952ba7f163c4a11628f55a4df523b3ef",
            "0x00000000000000000000000015d2d027c8e2ccd5295e35659b76e61def483ee7",
            "0x00000000000000000000000085b568c42fe6360ee4230eb220aa79cfad82ca3d"
          ],
          "data": "0x000000000000000000000000000000000000000000000000016345785d8a0000",
          "blockHash": "0x8a880e9293c6cccedeaaf698bc521edc6c870cfe8be6a5a108d9c466c7ed0514",
          "blockNumber": "0x1acf8a4",
          "transactionHash": "0x0469884cc7daff2928059a91c3044d00fd11d894ce02c32e37472211aa1cf87d",
          "transactionIndex": "0x7",
          "logIndex": "0xe",
          "removed": false
        },
        {
          "address": "0x0000000000000000000000000000000000001010",
          "topics": [
            "0x4dfe1bbbcf077ddc3e01291eea2d5c70c2b422b415d95645b9adcfd678cb1d63",
            "0x0000000000000000000000000000000000000000000000000000000000001010",
            "0x00000000000000000000000015d2d027c8e2ccd5295e35659b76e61def483ee7",
            "0x000000000000000000000000f903ba9e006193c1527bfbe65fe2123704ea3f99"
          ],
          "data": "0x0000000000000000000000000000000000000000000000000000dab239472e00000000000000000000000000000000000000000000000000037893d7f45a62040000000000000000000000000000000000000000000007084c08340974f932190000000000000000000000000000000000000000000000000377b925bb1334040000000000000000000000000000000000000000000007084c090ebbae406019",
          "blockHash": "0x8a880e9293c6cccedeaaf698bc521edc6c870cfe8be6a5a108d9c466c7ed0514",
          "blockNumber": "0x1acf8a4",
          "transactionHash": "0x0469884cc7daff2928059a91c3044d00fd11d894ce02c32e37472211aa1cf87d",
          "transactionIndex": "0x7",
          "logIndex": "0xf",
          "removed": false
        }
      ],
      "status": "0x1",
      "logsBloom": "0x00000000000000040080000000000000000000000000000000000010000000000000000000000020000000000000000000008000000040000000000000000000000000000000000000000008000000800000000000000000000100000000000000000000000000000000000000000000000000000000000080000010000000000000000000000000000000000000000000000000000010000000000000400000200000000800000000000000000000000000000000000000000000000000004000000002000000000001000000000000000000000000000000100000001000000800000000000000001000000000000000000000000000000000000000100000",
      "type": "0x2",
      "effectiveGasPrice": "0xb2d05e0d"
    },
    {
      "transactionHash": "0x8fcf25416d38ee795909a452006f6a88088f668d39b1cec061636b1cbf90c6d4",
      "transactionIndex": "0x8",
      "blockHash": "0x8a880e9293c6cccedeaaf698bc521edc6c870cfe8be6a5a108d9c466c7ed0514",
      "blockNumber": "0x1acf8a4",
      "from": "0x15d2d027c8E2CcD5295E35659B76E61dEF483eE7",
      "to": "0x0865B950a19da6aBFd19521C79846F04aEA20F2d",
      "cumulativeGasUsed": "0x1f425c",
      "gasUsed": "0x29343",
      "contractAddress": null,
      "logs": [
        {
          "address": "0x85b568c42FE6360Ee4230Eb220aA79Cfad82ca3d",
          "topics": [
            "0xb5e6e01e79f91267dc17b4e6314d5d4d03593d2ceee0fbb452b750bd70ea5af9",
            "0x41a068a5f1f0e9180a9ab2029b3a07e0b75f6ac7e6d8f803bb679182c03a4043"
          ],
          "data": "0x",
          "blockHash": "0x8a880e9293c6cccedeaaf698bc521edc6c870cfe8be6a5a108d9c466c7ed0514",
          "blockNumber": "0x1acf8a4",
          "transactionHash": "0x8fcf25416d38ee795909a452006f6a88088f668d39b1cec061636b1cbf90c6d4",
          "transactionIndex": "0x8",
          "logIndex": "0x10",
          "removed": false
        },
        {
          "address": "0x326C977E6efc84E512bB9C30f76E30c160eD06FB",
          "topics": [
            "0xddf252ad1be2c89b69c2b068fc378daa952ba7f163c4a11628f55a4df523b3ef",
            "0x00000000000000000000000085b568c42fe6360ee4230eb220aa79cfad82ca3d",
            "0x000000000000000000000000234c799054d5298777c37f1b8526d895f8d28874"
          ],
          "data": "0x000000000000000000000000000000000000000000000000016345785d8a0000",
          "blockHash": "0x8a880e9293c6cccedeaaf698bc521edc6c870cfe8be6a5a108d9c466c7ed0514",
          "blockNumber": "0x1acf8a4",
          "transactionHash": "0x8fcf25416d38ee795909a452006f6a88088f668d39b1cec061636b1cbf90c6d4",
          "transactionIndex": "0x8",
          "logIndex": "0x11",
          "removed": false
        },
        {
          "address": "0x326C977E6efc84E512bB9C30f76E30c160eD06FB",
          "topics": [
            "0xe19260aff97b920c7df27010903aeb9c8d2be5d310a2c67824cf3f15396e4c16",
            "0x00000000000000000000000085b568c42fe6360ee4230eb220aa79cfad82ca3d",
            "0x000000000000000000000000234c799054d5298777c37f1b8526d895f8d28874"
          ],
          "data": "0x000000000000000000000000000000000000000000000000016345785d8a0000000000000000000000000000000000000000000000000000000000000000004000000000000000000000000000000000000000000000000000000000000001643c6d41b90000000000000000000000000000000000000000000000000000000000000000000000000000000000000000000000000000000000000000000000000000000033333763663038346332363234363533396631623465613734386633356438387707f5b5000000000000000000000000000000000000000000000000000000000000000000000000000000000000000000000000000000000000000000000002000000000000000000000000000000000000000000000000000000000000000200000000000000000000000000000000000000000000000000000000000000e00000000000000000000000000000000000000000000000000000000000000058677477656574496473313537303331343332323330373630303338346c74776565745f6669656c64736e7075626c69635f6d657472696373647061746878197075626c69635f6d6574726963732c6c696b655f636f756e74000000000000000000000000000000000000000000000000000000000000000000000000",
          "blockHash": "0x8a880e9293c6cccedeaaf698bc521edc6c870cfe8be6a5a108d9c466c7ed0514",
          "blockNumber": "0x1acf8a4",
          "transactionHash": "0x8fcf25416d38ee795909a452006f6a88088f668d39b1cec061636b1cbf90c6d4",
          "transactionIndex": "0x8",
          "logIndex": "0x12",
          "removed": false
        },
        {
          "address": "0x234C799054D5298777C37F1B8526d895f8D28874",
          "topics": [
            "0xd8d7ecc4800d25fa53ce0372f13a416d98907a7ef3d8d3bdd79cf4fe75529c65",
            "0x3333376366303834633236323436353339663162346561373438663335643838"
          ],
          "data": "0x00000000000000000000000085b568c42fe6360ee4230eb220aa79cfad82ca3d41a068a5f1f0e9180a9ab2029b3a07e0b75f6ac7e6d8f803bb679182c03a4043000000000000000000000000000000000000000000000000016345785d8a000000000000000000000000000085b568c42fe6360ee4230eb220aa79cfad82ca3d7707f5b500000000000000000000000000000000000000000000000000000000000000000000000000000000000000000000000000000000000000006322e5ef000000000000000000000000000000000000000000000000000000000000000200000000000000000000000000000000000000000000000000000000000001000000000000000000000000000000000000000000000000000000000000000058677477656574496473313537303331343332323330373630303338346c74776565745f6669656c64736e7075626c69635f6d657472696373647061746878197075626c69635f6d6574726963732c6c696b655f636f756e740000000000000000",
          "blockHash": "0x8a880e9293c6cccedeaaf698bc521edc6c870cfe8be6a5a108d9c466c7ed0514",
          "blockNumber": "0x1acf8a4",
          "transactionHash": "0x8fcf25416d38ee795909a452006f6a88088f668d39b1cec061636b1cbf90c6d4",
          "transactionIndex": "0x8",
          "logIndex": "0x13",
          "removed": false
        },
        {
          "address": "0x0000000000000000000000000000000000001010",
          "topics": [
            "0x4dfe1bbbcf077ddc3e01291eea2d5c70c2b422b415d95645b9adcfd678cb1d63",
            "0x0000000000000000000000000000000000000000000000000000000000001010",
            "0x00000000000000000000000015d2d027c8e2ccd5295e35659b76e61def483ee7",
            "0x000000000000000000000000f903ba9e006193c1527bfbe65fe2123704ea3f99"
          ],
          "data": "0x0000000000000000000000000000000000000000000000000001cc7d2e829a000000000000000000000000000000000000000000000000000377b925bb034dbf0000000000000000000000000000000000000000000007084c090ebbae4060190000000000000000000000000000000000000000000000000375eca88c80b3bf0000000000000000000000000000000000000000000007084c0adb38dcc2fa19",
          "blockHash": "0x8a880e9293c6cccedeaaf698bc521edc6c870cfe8be6a5a108d9c466c7ed0514",
          "blockNumber": "0x1acf8a4",
          "transactionHash": "0x8fcf25416d38ee795909a452006f6a88088f668d39b1cec061636b1cbf90c6d4",
          "transactionIndex": "0x8",
          "logIndex": "0x14",
          "removed": false
        }
      ],
      "status": "0x1",
      "logsBloom": "0x01002000000000040080000000002000000000000001001000000010020000000000000000000020000000000000000000008000000040000000000000000000000000000000000000000028000000840000000800000000000320000000000000000000000002002000000000000000000000000000080080008010000000000000000080000000000000000001000000000420000010000000000000400000200000000800000000000000000000000000000000000000000000000000004000000002000400000001000000000000000000000000000000100000401000000800000000000000001000004000000000008000000000000800000000100000",
      "type": "0x2",
      "effectiveGasPrice": "0xb2d05e0d"
    }
  ],
  "libraries": [],
  "pending": [],
  "path": "/Users/joaoabrantis/github/writingmonks/contracts/broadcast/TestRelayerMumbai.s.sol/80001/run-latest.json",
  "returns": {},
  "timestamp": 1663231175,
  "commit": "b896821"
}